{
  "contractName": "VacationRequest",
  "abi": [
    {
      "inputs": [],
      "payable": false,
      "stateMutability": "nonpayable",
      "type": "constructor"
    },
    {
      "constant": true,
      "inputs": [],
      "name": "Requestor",
      "outputs": [
        {
          "internalType": "address",
          "name": "",
          "type": "address"
        }
      ],
      "payable": false,
      "stateMutability": "view",
      "type": "function"
    },
    {
      "constant": true,
      "inputs": [],
      "name": "Responder",
      "outputs": [
        {
          "internalType": "address",
          "name": "",
          "type": "address"
        }
      ],
      "payable": false,
      "stateMutability": "view",
      "type": "function"
    },
    {
      "constant": true,
      "inputs": [],
      "name": "State",
      "outputs": [
        {
          "internalType": "enum VacationRequest.StateType",
          "name": "",
          "type": "uint8"
        }
      ],
      "payable": false,
      "stateMutability": "view",
      "type": "function"
    }
  ],
  "bytecode": "0x608060405234801561001057600080fd5b5060008054610100600160a81b03191633610100021760ff1916815560f390819061003b90396000f3fe6080604052348015600f57600080fd5b5060043610603c5760003560e01c8063d181ada1146041578063f1b6dccd146063578063fd05116c14608c575b600080fd5b60476092565b604080516001600160a01b039092168252519081900360200190f35b606960a1565b60405180826004811115607857fe5b60ff16815260200191505060405180910390f35b604760aa565b6001546001600160a01b031681565b60005460ff1681565b60005461010090046001600160a01b03168156fea265627a7a723158207b0bc735efd8a7f3c4266755e299ef32e2765a24bdd65fae7993955cad47363464736f6c63430005100032",
  "source": "pragma solidity >=0.4.25 <0.7.0;\n\ncontract VacationRequest\n{\n    //Set of States\n    enum StateType { Draft, PendingApproval, Accepted, Rejected, Cancelled}\n\n    //List of properties\n    StateType public  State;\n    address public  Requestor; // IO\n    address public  Responder; // IM\n\n    // Constructor\n    constructor () public\n    {\n        Requestor = msg.sender;\n        State = StateType.Draft;\n    }\n}",
  "sourcePath": "/home/vsonline/workspace/ethereum/contracts/VacationRequest.sol",
  "compiler": {
    "name": "solc",
    "version": "0.5.16+commit.9c3226ce.Emscripten.clang"
  },
  "schemaVersion": "3.0.22",
  "updatedAt": "2020-01-26T14:12:07.132Z",
  "devdoc": {
    "methods": {}
  },
  "userdoc": {
    "methods": {}
  }
}